:100000000C9434000C9440000C943E000C943E0080
:100010000C943E000C943E000C943E000C943E0068
:100020000C943E000C943E000C943E000C943E0058
:100030000C943E000C943E000C943E000C943E0048
:100040000C943E000C943E000C943E000C943E0038
:100050000C943E000C943E000C943E000C943E0028
:100060000C943E000C943E0011241FBECFEFD8E04C
:10007000DEBFCDBF0E945B000C9489000C94000091
:100080001F920F920FB60F9211242F938F939F936D
:100090002B9A2FEF83ED90E3215080409040E1F7C1
:1000A00000C000002A9A9F918F912F910F900FBE50
:1000B0000F901F901895229A239A249A5298809113
:1000C00069008260809369008091690081608093FB
:1000D00069007894E89A2A982FEF39E648E1215090
:1000E00030404040E1F700C000002C9A8AE090E0E8
:1000F0005FEF27E639E849E051502040304040406A
:10010000D9F700C00000019799F72A9A80E090E0A3
:060110000895F894FFCFF2
:00000001FF
